:070000000201001201193298
:03000B00B290327E
:0400130012016D3237
:1001000012010580FED281D2AFD2A8D28812011589
:100110007D007E002275891122C2AAC2A8B2A33036
:10012000A30612012CD2A82212013522758C00756B
:100130008A00D28C22C28CE58AFBE58CFCBD000CC7
:10014000BE0009EBFDECFE312CD2A822EE9CC3943C
:10015000015003D2A822D28ED2AAD2A37E007D0063
:100160007590AA227FC87E01DDFEDFFA22C2AAB204
:10017000A330A30612017ED2AA2212018922758C15
:1001800000758A00D28CD2AA22C28CE58AFBE58C4B
:10019000FCBD000ABE0007EBFDECFE317E22EE9CAA
:1001A000C394015003D2AA22C28EE58D75A000220D
:1001B000B2A5327B1E758911D2AFD2A9D28C22781A
:1001C000C876C0E82401F87679E82401F876A4E836
:1001D0002401F876B0E82401F87619E82401F876CD
:1001E00012E82401F87682E82401F87678E8240100
:1001F000F87600E82401F87660E82401F82278C84F
:10020000EA28F8869022EAFF30A717EF75F00A84F3
:1002100075F00AA4F5F0EFAEF09EC2A7FA31FEEF3A
:10022000FA32EF75F00A84D2A7FA31FEEFFA328C77
:10023000F0ED84FAC394284002C28031BF31B3226A
:09024000DB04D280C28C410622CD
:00000001FF
