:07000000020100120124328D
:06000B00B2901202503217
:04001300120178322C
:100100007C017D2612023F80FE12010E80FED2810C
:10011000D2AFD2A8D288D28A1201207D007E0022DE
:1001200075891122C2AAC2A8B2A330A30612013750
:10013000D2A82212014022758C00758A00D28C222E
:10014000C28CE58AFBE58CFCBD000CBE0009EBFD12
:10015000ECFE3137D2A822EE9CC394015003D2A802
:1001600022D28ED2AAD2A37E007D007590AA227FD1
:10017000C87E01DDFEDFFA22C2AAB2A330A30612B6
:100180000189D2AA2212019422758C00758A00D2AC
:100190008CD2AA22C28CE58AFBE58CFCBD000ABE8B
:1001A0000007EBFDECFE318922EE9CC39401500365
:1001B000D2AA22C28E22B2A5327B1E758911D2AF7D
:1001C000D2A9D28C85FF8C85008A2278C876C0E8B7
:1001D0002401F87679E82401F876A4E82401F87679
:1001E000B0E82401F87619E82401F87612E8240131
:1001F000F87682E82401F87678E82401F87600E8B9
:100200002401F87660E82401F82278C8EA28F88604
:100210009022EAFF20A719EF75F00A8475F00AA46E
:10022000F5F0EFAEF09ED2A7C2A6FA510AEFFA326D
:10023000EF75F00A84C2A7D2A6FA510AEFFA328CFF
:10024000F0ED84FAC394284002C28031CB31B92248
:0E025000DB09D280C2A7C2A6C28C22411222B4
:00000001FF
